{
  "contractName": "EcommerceStore",
  "abi": [
    {
      "inputs": [],
      "stateMutability": "nonpayable",
      "type": "constructor"
    },
    {
      "inputs": [],
      "name": "productIndex",
      "outputs": [
        {
          "internalType": "uint256",
          "name": "",
          "type": "uint256"
        }
      ],
      "stateMutability": "view",
      "type": "function",
      "constant": true
    },
    {
      "inputs": [
        {
          "internalType": "string",
          "name": "_name",
          "type": "string"
        },
        {
          "internalType": "string",
          "name": "_category",
          "type": "string"
        },
        {
          "internalType": "string",
          "name": "_imageLink",
          "type": "string"
        },
        {
          "internalType": "string",
          "name": "_descLink",
          "type": "string"
        },
        {
          "internalType": "uint256",
          "name": "_auctionStartTime",
          "type": "uint256"
        },
        {
          "internalType": "uint256",
          "name": "_auctionEndTime",
          "type": "uint256"
        },
        {
          "internalType": "uint256",
          "name": "_startPrice",
          "type": "uint256"
        },
        {
          "internalType": "uint256",
          "name": "_productCondition",
          "type": "uint256"
        }
      ],
      "name": "addProductToStore",
      "outputs": [],
      "stateMutability": "nonpayable",
      "type": "function"
    },
    {
      "inputs": [
        {
          "internalType": "uint256",
          "name": "_productId",
          "type": "uint256"
        }
      ],
      "name": "getProduct",
      "outputs": [
        {
          "internalType": "uint256",
          "name": "",
          "type": "uint256"
        },
        {
          "internalType": "string",
          "name": "",
          "type": "string"
        },
        {
          "internalType": "string",
          "name": "",
          "type": "string"
        },
        {
          "internalType": "string",
          "name": "",
          "type": "string"
        },
        {
          "internalType": "string",
          "name": "",
          "type": "string"
        },
        {
          "internalType": "uint256",
          "name": "",
          "type": "uint256"
        },
        {
          "internalType": "uint256",
          "name": "",
          "type": "uint256"
        },
        {
          "internalType": "uint256",
          "name": "",
          "type": "uint256"
        },
        {
          "internalType": "enum EcommerceStore.ProductStatus",
          "name": "",
          "type": "uint8"
        },
        {
          "internalType": "enum EcommerceStore.ProductCondition",
          "name": "",
          "type": "uint8"
        }
      ],
      "stateMutability": "view",
      "type": "function",
      "constant": true
    },
    {
      "inputs": [
        {
          "internalType": "uint256",
          "name": "_productId",
          "type": "uint256"
        },
        {
          "internalType": "bytes32",
          "name": "_bid",
          "type": "bytes32"
        }
      ],
      "name": "bid",
      "outputs": [
        {
          "internalType": "bool",
          "name": "",
          "type": "bool"
        }
      ],
      "stateMutability": "payable",
      "type": "function",
      "payable": true
    },
    {
      "inputs": [
        {
          "internalType": "uint256",
          "name": "_productId",
          "type": "uint256"
        },
        {
          "internalType": "string",
          "name": "_amount",
          "type": "string"
        },
        {
          "internalType": "string",
          "name": "_secret",
          "type": "string"
        }
      ],
      "name": "revealBid",
      "outputs": [],
      "stateMutability": "nonpayable",
      "type": "function"
    },
    {
      "inputs": [
        {
          "internalType": "uint256",
          "name": "_productId",
          "type": "uint256"
        }
      ],
      "name": "hightestbidderInfo",
      "outputs": [
        {
          "internalType": "address",
          "name": "",
          "type": "address"
        },
        {
          "internalType": "uint256",
          "name": "",
          "type": "uint256"
        },
        {
          "internalType": "uint256",
          "name": "",
          "type": "uint256"
        }
      ],
      "stateMutability": "view",
      "type": "function",
      "constant": true
    },
    {
      "inputs": [
        {
          "internalType": "uint256",
          "name": "_productId",
          "type": "uint256"
        }
      ],
      "name": "totalBids",
      "outputs": [
        {
          "internalType": "uint256",
          "name": "",
          "type": "uint256"
        }
      ],
      "stateMutability": "view",
      "type": "function",
      "constant": true
    }
  ],
  "bytecode": "0x608060405234801561001057600080fd5b506000808190555061282b806100276000396000f3fe6080604052600436106100705760003560e01c8063b9db15b41161004e578063b9db15b41461011a578063c897d5a614610160578063ea1591bb1461018b578063f85f196e146101bb57610070565b80630f0848631461007557806328e3d190146100b4578063a508b955146100f1575b600080fd5b34801561008157600080fd5b5061009c60048036038101906100979190611b91565b6101e4565b6040516100ab93929190611c0e565b60405180910390f35b3480156100c057600080fd5b506100db60048036038101906100d69190611b91565b6105f5565b6040516100e89190611c45565b60405180910390f35b3480156100fd57600080fd5b5061011860048036038101906101139190611da6565b6109f1565b005b34801561012657600080fd5b50610141600480360381019061013c9190611b91565b610d1b565b6040516101579a99989796959493929190612013565b60405180910390f35b34801561016c57600080fd5b5061017561116d565b6040516101829190611c45565b60405180910390f35b6101a560048036038101906101a09190612101565b611173565b6040516101b2919061215c565b60405180910390f35b3480156101c757600080fd5b506101e260048036038101906101dd9190612177565b6114e0565b005b600080600080600260006001600088815260200190815260200160002060009054906101000a900473ffffffffffffffffffffffffffffffffffffffff1673ffffffffffffffffffffffffffffffffffffffff1673ffffffffffffffffffffffffffffffffffffffff1681526020019081526020016000206000868152602001908152602001600020604051806101c00160405290816000820154815260200160018201805461029390612231565b80601f01602080910402602001604051908101604052809291908181526020018280546102bf90612231565b801561030c5780601f106102e15761010080835404028352916020019161030c565b820191906000526020600020905b8154815290600101906020018083116102ef57829003601f168201915b5050505050815260200160028201805461032590612231565b80601f016020809104026020016040519081016040528092919081815260200182805461035190612231565b801561039e5780601f106103735761010080835404028352916020019161039e565b820191906000526020600020905b81548152906001019060200180831161038157829003601f168201915b505050505081526020016003820180546103b790612231565b80601f01602080910402602001604051908101604052809291908181526020018280546103e390612231565b80156104305780601f1061040557610100808354040283529160200191610430565b820191906000526020600020905b81548152906001019060200180831161041357829003601f168201915b5050505050815260200160048201805461044990612231565b80601f016020809104026020016040519081016040528092919081815260200182805461047590612231565b80156104c25780601f10610497576101008083540402835291602001916104c2565b820191906000526020600020905b8154815290600101906020018083116104a557829003601f168201915b505050505081526020016005820154815260200160068201548152602001600782015481526020016008820160009054906101000a900473ffffffffffffffffffffffffffffffffffffffff1673ffffffffffffffffffffffffffffffffffffffff1673ffffffffffffffffffffffffffffffffffffffff16815260200160098201548152602001600a8201548152602001600b8201548152602001600c820160009054906101000a900460ff16600281111561058257610581611f54565b5b600281111561059457610593611f54565b5b8152602001600c820160019054906101000a900460ff1660018111156105bd576105bc611f54565b5b60018111156105cf576105ce611f54565b5b815250509050806101000151816101200151826101400151935093509350509193909250565b600080600260006001600086815260200190815260200160002060009054906101000a900473ffffffffffffffffffffffffffffffffffffffff1673ffffffffffffffffffffffffffffffffffffffff1673ffffffffffffffffffffffffffffffffffffffff1681526020019081526020016000206000848152602001908152602001600020604051806101c0016040529081600082015481526020016001820180546106a190612231565b80601f01602080910402602001604051908101604052809291908181526020018280546106cd90612231565b801561071a5780601f106106ef5761010080835404028352916020019161071a565b820191906000526020600020905b8154815290600101906020018083116106fd57829003601f168201915b5050505050815260200160028201805461073390612231565b80601f016020809104026020016040519081016040528092919081815260200182805461075f90612231565b80156107ac5780601f10610781576101008083540402835291602001916107ac565b820191906000526020600020905b81548152906001019060200180831161078f57829003601f168201915b505050505081526020016003820180546107c590612231565b80601f01602080910402602001604051908101604052809291908181526020018280546107f190612231565b801561083e5780601f106108135761010080835404028352916020019161083e565b820191906000526020600020905b81548152906001019060200180831161082157829003601f168201915b5050505050815260200160048201805461085790612231565b80601f016020809104026020016040519081016040528092919081815260200182805461088390612231565b80156108d05780601f106108a5576101008083540402835291602001916108d0565b820191906000526020600020905b8154815290600101906020018083116108b357829003601f168201915b505050505081526020016005820154815260200160068201548152602001600782015481526020016008820160009054906101000a900473ffffffffffffffffffffffffffffffffffffffff1673ffffffffffffffffffffffffffffffffffffffff1673ffffffffffffffffffffffffffffffffffffffff16815260200160098201548152602001600a8201548152602001600b8201548152602001600c820160009054906101000a900460ff1660028111156109905761098f611f54565b5b60028111156109a2576109a1611f54565b5b8152602001600c820160019054906101000a900460ff1660018111156109cb576109ca611f54565b5b60018111156109dd576109dc611f54565b5b815250509050806101600151915050919050565b828410610a33576040517f08c379a0000000000000000000000000000000000000000000000000000000008152600401610a2a906122d4565b60405180910390fd5b6001600080828254610a459190612323565b925050819055506000604051806101c0016040528060005481526020018a8152602001898152602001888152602001878152602001868152602001858152602001848152602001600073ffffffffffffffffffffffffffffffffffffffff16815260200160008152602001600081526020016000815260200160006002811115610ad257610ad1611f54565b5b8152602001836001811115610aea57610ae9611f54565b5b6001811115610afc57610afb611f54565b5b815250905080600260003373ffffffffffffffffffffffffffffffffffffffff1673ffffffffffffffffffffffffffffffffffffffff168152602001908152602001600020600080548152602001908152602001600020600082015181600001556020820151816001019080519060200190610b79929190611aa4565b506040820151816002019080519060200190610b96929190611aa4565b506060820151816003019080519060200190610bb3929190611aa4565b506080820151816004019080519060200190610bd0929190611aa4565b5060a0820151816005015560c0820151816006015560e082015181600701556101008201518160080160006101000a81548173ffffffffffffffffffffffffffffffffffffffff021916908373ffffffffffffffffffffffffffffffffffffffff160217905550610120820151816009015561014082015181600a015561016082015181600b015561018082015181600c0160006101000a81548160ff02191690836002811115610c8457610c83611f54565b5b02179055506101a082015181600c0160016101000a81548160ff02191690836001811115610cb557610cb4611f54565b5b021790555090505033600160008054815260200190815260200160002060006101000a81548173ffffffffffffffffffffffffffffffffffffffff021916908373ffffffffffffffffffffffffffffffffffffffff160217905550505050505050505050565b600060608060608060008060008060008060026000600160008f815260200190815260200160002060009054906101000a900473ffffffffffffffffffffffffffffffffffffffff1673ffffffffffffffffffffffffffffffffffffffff1673ffffffffffffffffffffffffffffffffffffffff16815260200190815260200160002060008d8152602001908152602001600020604051806101c001604052908160008201548152602001600182018054610dd590612231565b80601f0160208091040260200160405190810160405280929190818152602001828054610e0190612231565b8015610e4e5780601f10610e2357610100808354040283529160200191610e4e565b820191906000526020600020905b815481529060010190602001808311610e3157829003601f168201915b50505050508152602001600282018054610e6790612231565b80601f0160208091040260200160405190810160405280929190818152602001828054610e9390612231565b8015610ee05780601f10610eb557610100808354040283529160200191610ee0565b820191906000526020600020905b815481529060010190602001808311610ec357829003601f168201915b50505050508152602001600382018054610ef990612231565b80601f0160208091040260200160405190810160405280929190818152602001828054610f2590612231565b8015610f725780601f10610f4757610100808354040283529160200191610f72565b820191906000526020600020905b815481529060010190602001808311610f5557829003601f168201915b50505050508152602001600482018054610f8b90612231565b80601f0160208091040260200160405190810160405280929190818152602001828054610fb790612231565b80156110045780601f10610fd957610100808354040283529160200191611004565b820191906000526020600020905b815481529060010190602001808311610fe757829003601f168201915b505050505081526020016005820154815260200160068201548152602001600782015481526020016008820160009054906101000a900473ffffffffffffffffffffffffffffffffffffffff1673ffffffffffffffffffffffffffffffffffffffff1673ffffffffffffffffffffffffffffffffffffffff16815260200160098201548152602001600a8201548152602001600b8201548152602001600c820160009054906101000a900460ff1660028111156110c4576110c3611f54565b5b60028111156110d6576110d5611f54565b5b8152602001600c820160019054906101000a900460ff1660018111156110ff576110fe611f54565b5b600181111561111157611110611f54565b5b815250509050806000015181602001518260400151836060015184608001518560a001518660c001518760e00151886101800151896101a001519a509a509a509a509a509a509a509a509a509a50509193959799509193959799565b60005481565b600080600260006001600087815260200190815260200160002060009054906101000a900473ffffffffffffffffffffffffffffffffffffffff1673ffffffffffffffffffffffffffffffffffffffff1673ffffffffffffffffffffffffffffffffffffffff168152602001908152602001600020600085815260200190815260200160002090508060050154421015611242576040517f08c379a0000000000000000000000000000000000000000000000000000000008152600401611239906123c5565b60405180910390fd5b8060060154421115611289576040517f08c379a000000000000000000000000000000000000000000000000000000000815260040161128090612431565b60405180910390fd5b806007015434116112cf576040517f08c379a00000000000000000000000000000000000000000000000000000000081526004016112c6906124c3565b60405180910390fd5b600073ffffffffffffffffffffffffffffffffffffffff16600360003373ffffffffffffffffffffffffffffffffffffffff1673ffffffffffffffffffffffffffffffffffffffff168152602001908152602001600020600085815260200190815260200160002060000160009054906101000a900473ffffffffffffffffffffffffffffffffffffffff1673ffffffffffffffffffffffffffffffffffffffff16146113b1576040517f08c379a00000000000000000000000000000000000000000000000000000000081526004016113a89061252f565b60405180910390fd5b60405180608001604052803373ffffffffffffffffffffffffffffffffffffffff16815260200185815260200134815260200160001515815250600360003373ffffffffffffffffffffffffffffffffffffffff1673ffffffffffffffffffffffffffffffffffffffff168152602001908152602001600020600085815260200190815260200160002060008201518160000160006101000a81548173ffffffffffffffffffffffffffffffffffffffff021916908373ffffffffffffffffffffffffffffffffffffffff160217905550602082015181600101556040820151816002015560608201518160030160006101000a81548160ff021916908315150217905550905050600181600b0160008282546114ce9190612323565b92505081905550600191505092915050565b6000600260006001600087815260200190815260200160002060009054906101000a900473ffffffffffffffffffffffffffffffffffffffff1673ffffffffffffffffffffffffffffffffffffffff1673ffffffffffffffffffffffffffffffffffffffff1681526020019081526020016000206000858152602001908152602001600020905080600601544210156115ae576040517f08c379a00000000000000000000000000000000000000000000000000000000081526004016115a5906125c1565b60405180910390fd5b600083836040516020016115c39291906125e1565b6040516020818303038152906040528051906020012090506000600360003373ffffffffffffffffffffffffffffffffffffffff1673ffffffffffffffffffffffffffffffffffffffff16815260200190815260200160002060008381526020019081526020016000206040518060800160405290816000820160009054906101000a900473ffffffffffffffffffffffffffffffffffffffff1673ffffffffffffffffffffffffffffffffffffffff1673ffffffffffffffffffffffffffffffffffffffff16815260200160018201548152602001600282015481526020016003820160009054906101000a900460ff1615151515815250509050600073ffffffffffffffffffffffffffffffffffffffff16816000015173ffffffffffffffffffffffffffffffffffffffff1611611732576040517f08c379a000000000000000000000000000000000000000000000000000000000815260040161172990612664565b60405180910390fd5b60001515816060015115151461177d576040517f08c379a0000000000000000000000000000000000000000000000000000000008152600401611774906126d0565b60405180910390fd5b60008061178987611a06565b905080836040015110156117a3578260400151915061193f565b600073ffffffffffffffffffffffffffffffffffffffff168560080160009054906101000a900473ffffffffffffffffffffffffffffffffffffffff1673ffffffffffffffffffffffffffffffffffffffff160361182857808560090181905550846007015485600a018190555080836040015161182191906126f0565b915061193e565b846009015481111561191357846009015485600a01819055508460080160009054906101000a900473ffffffffffffffffffffffffffffffffffffffff1673ffffffffffffffffffffffffffffffffffffffff166108fc86600901549081150290604051600060405180830381858888f193505050501580156118af573d6000803e3d6000fd5b50808560090181905550338560080160006101000a81548173ffffffffffffffffffffffffffffffffffffffff021916908373ffffffffffffffffffffffffffffffffffffffff16021790555080836040015161190c91906126f0565b915061193d565b84600a0154811115611934578085600a01819055508260400151915061193c565b826040015191505b5b5b5b6001600360003373ffffffffffffffffffffffffffffffffffffffff1673ffffffffffffffffffffffffffffffffffffffff168152602001908152602001600020600086815260200190815260200160002060030160006101000a81548160ff02191690831515021790555060008211156119fc573373ffffffffffffffffffffffffffffffffffffffff166108fc839081150290604051600060405180830381858888f193505050501580156119fa573d6000803e3d6000fd5b505b5050505050505050565b6000808290506000805b8251811015611a99576000838281518110611a2e57611a2d612724565b5b602001015160f81c60f81b60f81c905060308160ff1610158015611a56575060398160ff1611155b15611a855760308160ff16600a85611a6e9190612753565b611a789190612323565b611a8291906126f0565b92505b508080611a91906127ad565b915050611a10565b508092505050919050565b828054611ab090612231565b90600052602060002090601f016020900481019282611ad25760008555611b19565b82601f10611aeb57805160ff1916838001178555611b19565b82800160010185558215611b19579182015b82811115611b18578251825591602001919060010190611afd565b5b509050611b269190611b2a565b5090565b5b80821115611b43576000816000905550600101611b2b565b5090565b6000604051905090565b600080fd5b600080fd5b6000819050919050565b611b6e81611b5b565b8114611b7957600080fd5b50565b600081359050611b8b81611b65565b92915050565b600060208284031215611ba757611ba6611b51565b5b6000611bb584828501611b7c565b91505092915050565b600073ffffffffffffffffffffffffffffffffffffffff82169050919050565b6000611be982611bbe565b9050919050565b611bf981611bde565b82525050565b611c0881611b5b565b82525050565b6000606082019050611c236000830186611bf0565b611c306020830185611bff565b611c3d6040830184611bff565b949350505050565b6000602082019050611c5a6000830184611bff565b92915050565b600080fd5b600080fd5b6000601f19601f8301169050919050565b7f4e487b7100000000000000000000000000000000000000000000000000000000600052604160045260246000fd5b611cb382611c6a565b810181811067ffffffffffffffff82111715611cd257611cd1611c7b565b5b80604052505050565b6000611ce5611b47565b9050611cf18282611caa565b919050565b600067ffffffffffffffff821115611d1157611d10611c7b565b5b611d1a82611c6a565b9050602081019050919050565b82818337600083830152505050565b6000611d49611d4484611cf6565b611cdb565b905082815260208101848484011115611d6557611d64611c65565b5b611d70848285611d27565b509392505050565b600082601f830112611d8d57611d8c611c60565b5b8135611d9d848260208601611d36565b91505092915050565b600080600080600080600080610100898b031215611dc757611dc6611b51565b5b600089013567ffffffffffffffff811115611de557611de4611b56565b5b611df18b828c01611d78565b985050602089013567ffffffffffffffff811115611e1257611e11611b56565b5b611e1e8b828c01611d78565b975050604089013567ffffffffffffffff811115611e3f57611e3e611b56565b5b611e4b8b828c01611d78565b965050606089013567ffffffffffffffff811115611e6c57611e6b611b56565b5b611e788b828c01611d78565b9550506080611e898b828c01611b7c565b94505060a0611e9a8b828c01611b7c565b93505060c0611eab8b828c01611b7c565b92505060e0611ebc8b828c01611b7c565b9150509295985092959890939650565b600081519050919050565b600082825260208201905092915050565b60005b83811015611f06578082015181840152602081019050611eeb565b83811115611f15576000848401525b50505050565b6000611f2682611ecc565b611f308185611ed7565b9350611f40818560208601611ee8565b611f4981611c6a565b840191505092915050565b7f4e487b7100000000000000000000000000000000000000000000000000000000600052602160045260246000fd5b60038110611f9457611f93611f54565b5b50565b6000819050611fa582611f83565b919050565b6000611fb582611f97565b9050919050565b611fc581611faa565b82525050565b60028110611fdc57611fdb611f54565b5b50565b6000819050611fed82611fcb565b919050565b6000611ffd82611fdf565b9050919050565b61200d81611ff2565b82525050565b600061014082019050612029600083018d611bff565b818103602083015261203b818c611f1b565b9050818103604083015261204f818b611f1b565b90508181036060830152612063818a611f1b565b905081810360808301526120778189611f1b565b905061208660a0830188611bff565b61209360c0830187611bff565b6120a060e0830186611bff565b6120ae610100830185611fbc565b6120bc610120830184612004565b9b9a5050505050505050505050565b6000819050919050565b6120de816120cb565b81146120e957600080fd5b50565b6000813590506120fb816120d5565b92915050565b6000806040838503121561211857612117611b51565b5b600061212685828601611b7c565b9250506020612137858286016120ec565b9150509250929050565b60008115159050919050565b61215681612141565b82525050565b6000602082019050612171600083018461214d565b92915050565b6000806000606084860312156121905761218f611b51565b5b600061219e86828701611b7c565b935050602084013567ffffffffffffffff8111156121bf576121be611b56565b5b6121cb86828701611d78565b925050604084013567ffffffffffffffff8111156121ec576121eb611b56565b5b6121f886828701611d78565b9150509250925092565b7f4e487b7100000000000000000000000000000000000000000000000000000000600052602260045260246000fd5b6000600282049050600182168061224957607f821691505b60208210810361225c5761225b612202565b5b50919050565b7f61756374696f6e2073746172742074696d652073686f756c642062652062656660008201527f6f72652061756374696f6e20656e642074696d65000000000000000000000000602082015250565b60006122be603483611ed7565b91506122c982612262565b604082019050919050565b600060208201905081810360008301526122ed816122b1565b9050919050565b7f4e487b7100000000000000000000000000000000000000000000000000000000600052601160045260246000fd5b600061232e82611b5b565b915061233983611b5b565b9250827fffffffffffffffffffffffffffffffffffffffffffffffffffffffffffffffff0382111561236e5761236d6122f4565b5b828201905092915050565b7f61756374696f6e20686173206e6f742073746172746564207965740000000000600082015250565b60006123af601b83611ed7565b91506123ba82612379565b602082019050919050565b600060208201905081810360008301526123de816123a2565b9050919050565b7f61756374696f6e2068617320656e646564000000000000000000000000000000600082015250565b600061241b601183611ed7565b9150612426826123e5565b602082019050919050565b6000602082019050818103600083015261244a8161240e565b9050919050565b7f6269642073686f756c642062652067726561746572207468616e20737461727460008201527f2070726963650000000000000000000000000000000000000000000000000000602082015250565b60006124ad602683611ed7565b91506124b882612451565b604082019050919050565b600060208201905081810360008301526124dc816124a0565b9050919050565b7f796f75206861766520616c726561647920626964000000000000000000000000600082015250565b6000612519601483611ed7565b9150612524826124e3565b602082019050919050565b600060208201905081810360008301526125488161250c565b9050919050565b7f72657665616c2073686f756c642062652061667465722061756374696f6e206560008201527f6e64656400000000000000000000000000000000000000000000000000000000602082015250565b60006125ab602483611ed7565b91506125b68261254f565b604082019050919050565b600060208201905081810360008301526125da8161259e565b9050919050565b600060408201905081810360008301526125fb8185611f1b565b9050818103602083015261260f8184611f1b565b90509392505050565b7f6269646465722073686f756c642062652076616c696400000000000000000000600082015250565b600061264e601683611ed7565b915061265982612618565b602082019050919050565b6000602082019050818103600083015261267d81612641565b9050919050565b7f6269642073686f756c64206e6f742062652072657665616c6564000000000000600082015250565b60006126ba601a83611ed7565b91506126c582612684565b602082019050919050565b600060208201905081810360008301526126e9816126ad565b9050919050565b60006126fb82611b5b565b915061270683611b5b565b925082821015612719576127186122f4565b5b828203905092915050565b7f4e487b7100000000000000000000000000000000000000000000000000000000600052603260045260246000fd5b600061275e82611b5b565b915061276983611b5b565b9250817fffffffffffffffffffffffffffffffffffffffffffffffffffffffffffffffff04831182151516156127a2576127a16122f4565b5b828202905092915050565b60006127b882611b5b565b91507fffffffffffffffffffffffffffffffffffffffffffffffffffffffffffffffff82036127ea576127e96122f4565b5b60018201905091905056fea264697066735822122089648d2ab07789bc9e52d764ba752e3057c78b8ced511f326d97fdb64c16690e64736f6c634300080d0033",
  "immutableReferences": {},
  "source": "//SPDX-License-Identifier: MIT\n\npragma solidity ^0.8.4;\n\n//\n\ncontract EcommerceStore {\n\n     //\n     enum ProductStatus {\n            Available,\n            SoldOut,\n            Unsold\n     }\n\n     //\n     enum ProductCondition {\n               New,\n               Used\n     }\n\n     //\n     uint public productIndex;\n\n     //mapstore\n     mapping (uint => address) productIdInStore;\n     \n     //id\n     mapping(address => mapping(uint => Product)) stores;\n\n     //\n     struct Product {\n\n          //\n\n          uint id;\n          string name;\n          string category;\n          string imageLink;\n          string descLink;\n\n          //\n \n          uint auctionStartTime;\n          uint auctionEndTime;\n          uint startPrice;\n\n          address highestBidder;\n          uint highestBid;\n          uint secondHighestBid;\n          uint totalBids;\n\n          //\n\n          ProductStatus status;\n          ProductCondition condition;\n\n     }\n\n     //hashkeymap\n          //-\n     mapping(address => mapping(bytes32 => Bid )) bids;\n\n     //\n\n     struct Bid {\n          address bidder;\n          uint productId;\n\n          uint value; //\n          bool revealed; //\n     }\n\n\n\n     //,\n     constructor(){\n          productIndex = 0;\n     }\n\n     //\n\n     function addProductToStore(string memory _name, string memory _category, string memory _imageLink, string memory _descLink,\n     uint _auctionStartTime, uint _auctionEndTime, uint _startPrice,\n     uint _productCondition) public {\n\n          require(_auctionStartTime < _auctionEndTime, \"auction start time should be before auction end time\");\n          productIndex +=1;\n\n          //map\n          \n\n          //\n          Product memory product = Product(productIndex, _name, _category, _imageLink, _descLink,_auctionStartTime, _auctionEndTime, _startPrice, address(0), 0, 0, 0, ProductStatus.Available, ProductCondition(_productCondition));\n\n          //,msg.senderproductIndex\n          stores[msg.sender][productIndex] = product;\n          //\n          productIdInStore[productIndex] = msg.sender;\n     } \n\n     //\n\n     function getProduct(uint _productId) public view returns(uint,string memory,string memory,string memory,string memory,uint,uint,uint,ProductStatus,ProductCondition){\n          //store\n          Product memory product = stores[productIdInStore[_productId]][_productId];\n          //\n          return(product.id,product.name,product.category,product.imageLink,product.descLink,\n          product.auctionStartTime,product.auctionEndTime,product.startPrice,\n          product.status,product.condition);\n     }\n\n     //\n     function bid(uint _productId,bytes32 _bid)public payable returns (bool) {\n          //storage\n          Product storage product = stores[productIdInStore[_productId]][_productId];\n\n          //\n          //require if\n          require(block.timestamp >= product.auctionStartTime, \"auction has not started yet\");\n          require(block.timestamp <= product.auctionEndTime, \"auction has ended\");\n\n          //msgmsg.sendermsg.value\n          require(msg.value>product.startPrice,\"bid should be greater than start price\");\n\n          //\n          // require(product.bids[msg.sender][_bid].bidder == 0,\"you have already bid\");\n          require(bids[msg.sender][_bid].bidder == address(0x0),\"you have already bid\");\n\n          //\n          bids[msg.sender][_bid]= Bid(msg.sender,_productId,msg.value,false);\n\n          product.totalBids +=1;\n\n          return true;\n     }\n\n     //\n     function revealBid(uint _productId,string memory _amount,string memory _secret) public {\n          Product storage product = stores[productIdInStore[_productId]][_productId];\n          require(block.timestamp >= product.auctionEndTime, \"reveal should be after auction ended\");\n\n          bytes32  sealedBid = keccak256(abi.encode(_amount,_secret));\n\n          Bid memory bidInfo = bids[msg.sender][sealedBid];\n\n          //\n          require(bidInfo.bidder >address(0x0), \"bidder should be valid\");\n          require(bidInfo.revealed == false, \"bid should not be revealed\");\n\n          //\n          uint refund;\n          //uint\n          uint amount = stringToUint(_amount);\n          \n          //\n          if (bidInfo.value < amount) {\n               refund = bidInfo.value;\n          } else {\n               //\n               if (address(product.highestBidder)==address(0x0)) {\n                    product.highestBid = amount;\n                    //\n                    product.secondHighestBid = product.startPrice;\n                    //=\n                    refund = bidInfo.value- amount;\n               }else {\n                    if(amount > product.highestBid){\n                         //\n                         //\n                         product.secondHighestBid = product.highestBid;\n\n                         // address payable product.highestBidder;\n                         //\n                         payable(product.highestBidder).transfer(product.highestBid);\n\n                         //\n                         product.highestBid = amount;\n\n                         //\n                         product.highestBidder = msg.sender;\n\n                         //\n                         refund = bidInfo.value - amount;\n\n                    }else if (amount > product.secondHighestBid) {\n                         //\n                         product.secondHighestBid = amount;\n                         //\n                         refund = bidInfo.value;\n                         \n                    }else {\n                         //\n                         refund = bidInfo.value;\n                    }      \n               }\n          }\n          \n          bids[msg.sender][sealedBid].revealed = true;\n\n          if (refund > 0) {\n               //\n               payable(msg.sender).transfer(refund);\n          }\n     }\n\n     function stringToUint(string memory s) private pure  returns(uint) {\n          //\n          bytes memory b = bytes(s);\n          //uint\n          uint result = 0;\n          for (uint i = 0; i < b.length; i++){\n               //\n               uint8 c = uint8(bytes(b)[i]);\n               if(c>=48 && c<=57){\n                    result = result*10 + c-48;\n               }\n          }\n          return result;\n     }\n\n     function hightestbidderInfo(uint _productId)public view returns(address,uint,uint){\n          Product memory product = stores[productIdInStore[_productId]][_productId];\n\n          return (product.highestBidder,product.highestBid,product.secondHighestBid);\n     }\n\n     function totalBids(uint _productId)public view returns(uint){\n          Product memory product = stores[productIdInStore[_productId]][_productId];\n          return product.totalBids;\n     }\n}",
  "sourcePath": "/Users/qinjianquan/decentralized-ebay/truffle-test-and-deploy-contract/contracts/EcommerceStore.sol",
  "compiler": {
    "name": "solc",
    "version": "0.8.13+commit.abaa5c0e.Emscripten.clang"
  },
  "schemaVersion": "3.4.7",
  "updatedAt": "2022-05-22T07:02:09.470Z",
  "networkType": "ethereum",
  "devdoc": {
    "kind": "dev",
    "methods": {},
    "version": 1
  },
  "userdoc": {
    "kind": "user",
    "methods": {},
    "version": 1
  }
}