{
  "contractName": "EcommerceStore",
  "abi": [
    {
      "inputs": [],
      "stateMutability": "nonpayable",
      "type": "constructor"
    },
    {
      "inputs": [],
      "name": "productIndex",
      "outputs": [
        {
          "internalType": "uint256",
          "name": "",
          "type": "uint256"
        }
      ],
      "stateMutability": "view",
      "type": "function",
      "constant": true
    },
    {
      "inputs": [
        {
          "internalType": "string",
          "name": "_name",
          "type": "string"
        },
        {
          "internalType": "string",
          "name": "_category",
          "type": "string"
        },
        {
          "internalType": "string",
          "name": "_imageLink",
          "type": "string"
        },
        {
          "internalType": "string",
          "name": "_descLink",
          "type": "string"
        },
        {
          "internalType": "uint256",
          "name": "_auctionStartTime",
          "type": "uint256"
        },
        {
          "internalType": "uint256",
          "name": "_auctionEndTime",
          "type": "uint256"
        },
        {
          "internalType": "uint256",
          "name": "_startPrice",
          "type": "uint256"
        },
        {
          "internalType": "uint256",
          "name": "_productCondition",
          "type": "uint256"
        }
      ],
      "name": "addProductToStore",
      "outputs": [],
      "stateMutability": "nonpayable",
      "type": "function"
    },
    {
      "inputs": [
        {
          "internalType": "uint256",
          "name": "_productId",
          "type": "uint256"
        }
      ],
      "name": "getProduct",
      "outputs": [
        {
          "internalType": "uint256",
          "name": "",
          "type": "uint256"
        },
        {
          "internalType": "string",
          "name": "",
          "type": "string"
        },
        {
          "internalType": "string",
          "name": "",
          "type": "string"
        },
        {
          "internalType": "string",
          "name": "",
          "type": "string"
        },
        {
          "internalType": "string",
          "name": "",
          "type": "string"
        },
        {
          "internalType": "uint256",
          "name": "",
          "type": "uint256"
        },
        {
          "internalType": "uint256",
          "name": "",
          "type": "uint256"
        },
        {
          "internalType": "uint256",
          "name": "",
          "type": "uint256"
        },
        {
          "internalType": "enum EcommerceStore.ProductStatus",
          "name": "",
          "type": "uint8"
        },
        {
          "internalType": "enum EcommerceStore.ProductCondition",
          "name": "",
          "type": "uint8"
        }
      ],
      "stateMutability": "view",
      "type": "function",
      "constant": true
    }
  ],
  "bytecode": "0x608060405234801561001057600080fd5b5060008081905550610f97806100276000396000f3fe608060405234801561001057600080fd5b50600436106100415760003560e01c8063a508b95514610046578063b9db15b414610062578063c897d5a61461009b575b600080fd5b610060600480360381019061005b9190610a6e565b6100b9565b005b61007c60048036038101906100779190610b94565b6103e3565b6040516100929a99989796959493929190610d17565b60405180910390f35b6100a3610835565b6040516100b09190610dcf565b60405180910390f35b8284106100fb576040517f08c379a00000000000000000000000000000000000000000000000000000000081526004016100f290610e5c565b60405180910390fd5b600160008082825461010d9190610eab565b925050819055506000604051806101c0016040528060005481526020018a8152602001898152602001888152602001878152602001868152602001858152602001848152602001600073ffffffffffffffffffffffffffffffffffffffff1681526020016000815260200160008152602001600081526020016000600281111561019a57610199610c58565b5b81526020018360018111156101b2576101b1610c58565b5b60018111156101c4576101c3610c58565b5b815250905080600260003373ffffffffffffffffffffffffffffffffffffffff1673ffffffffffffffffffffffffffffffffffffffff16815260200190815260200160002060008054815260200190815260200160002060008201518160000155602082015181600101908051906020019061024192919061083b565b50604082015181600201908051906020019061025e92919061083b565b50606082015181600301908051906020019061027b92919061083b565b50608082015181600401908051906020019061029892919061083b565b5060a0820151816005015560c0820151816006015560e082015181600701556101008201518160080160006101000a81548173ffffffffffffffffffffffffffffffffffffffff021916908373ffffffffffffffffffffffffffffffffffffffff160217905550610120820151816009015561014082015181600a015561016082015181600b015561018082015181600c0160006101000a81548160ff0219169083600281111561034c5761034b610c58565b5b02179055506101a082015181600c0160016101000a81548160ff0219169083600181111561037d5761037c610c58565b5b021790555090505033600160008054815260200190815260200160002060006101000a81548173ffffffffffffffffffffffffffffffffffffffff021916908373ffffffffffffffffffffffffffffffffffffffff160217905550505050505050505050565b600060608060608060008060008060008060026000600160008f815260200190815260200160002060009054906101000a900473ffffffffffffffffffffffffffffffffffffffff1673ffffffffffffffffffffffffffffffffffffffff1673ffffffffffffffffffffffffffffffffffffffff16815260200190815260200160002060008d8152602001908152602001600020604051806101c00160405290816000820154815260200160018201805461049d90610f30565b80601f01602080910402602001604051908101604052809291908181526020018280546104c990610f30565b80156105165780601f106104eb57610100808354040283529160200191610516565b820191906000526020600020905b8154815290600101906020018083116104f957829003601f168201915b5050505050815260200160028201805461052f90610f30565b80601f016020809104026020016040519081016040528092919081815260200182805461055b90610f30565b80156105a85780601f1061057d576101008083540402835291602001916105a8565b820191906000526020600020905b81548152906001019060200180831161058b57829003601f168201915b505050505081526020016003820180546105c190610f30565b80601f01602080910402602001604051908101604052809291908181526020018280546105ed90610f30565b801561063a5780601f1061060f5761010080835404028352916020019161063a565b820191906000526020600020905b81548152906001019060200180831161061d57829003601f168201915b5050505050815260200160048201805461065390610f30565b80601f016020809104026020016040519081016040528092919081815260200182805461067f90610f30565b80156106cc5780601f106106a1576101008083540402835291602001916106cc565b820191906000526020600020905b8154815290600101906020018083116106af57829003601f168201915b505050505081526020016005820154815260200160068201548152602001600782015481526020016008820160009054906101000a900473ffffffffffffffffffffffffffffffffffffffff1673ffffffffffffffffffffffffffffffffffffffff1673ffffffffffffffffffffffffffffffffffffffff16815260200160098201548152602001600a8201548152602001600b8201548152602001600c820160009054906101000a900460ff16600281111561078c5761078b610c58565b5b600281111561079e5761079d610c58565b5b8152602001600c820160019054906101000a900460ff1660018111156107c7576107c6610c58565b5b60018111156107d9576107d8610c58565b5b815250509050806000015181602001518260400151836060015184608001518560a001518660c001518760e00151886101800151896101a001519a509a509a509a509a509a509a509a509a509a50509193959799509193959799565b60005481565b82805461084790610f30565b90600052602060002090601f01602090048101928261086957600085556108b0565b82601f1061088257805160ff19168380011785556108b0565b828001600101855582156108b0579182015b828111156108af578251825591602001919060010190610894565b5b5090506108bd91906108c1565b5090565b5b808211156108da5760008160009055506001016108c2565b5090565b6000604051905090565b600080fd5b600080fd5b600080fd5b600080fd5b6000601f19601f8301169050919050565b7f4e487b7100000000000000000000000000000000000000000000000000000000600052604160045260246000fd5b610945826108fc565b810181811067ffffffffffffffff821117156109645761096361090d565b5b80604052505050565b60006109776108de565b9050610983828261093c565b919050565b600067ffffffffffffffff8211156109a3576109a261090d565b5b6109ac826108fc565b9050602081019050919050565b82818337600083830152505050565b60006109db6109d684610988565b61096d565b9050828152602081018484840111156109f7576109f66108f7565b5b610a028482856109b9565b509392505050565b600082601f830112610a1f57610a1e6108f2565b5b8135610a2f8482602086016109c8565b91505092915050565b6000819050919050565b610a4b81610a38565b8114610a5657600080fd5b50565b600081359050610a6881610a42565b92915050565b600080600080600080600080610100898b031215610a8f57610a8e6108e8565b5b600089013567ffffffffffffffff811115610aad57610aac6108ed565b5b610ab98b828c01610a0a565b985050602089013567ffffffffffffffff811115610ada57610ad96108ed565b5b610ae68b828c01610a0a565b975050604089013567ffffffffffffffff811115610b0757610b066108ed565b5b610b138b828c01610a0a565b965050606089013567ffffffffffffffff811115610b3457610b336108ed565b5b610b408b828c01610a0a565b9550506080610b518b828c01610a59565b94505060a0610b628b828c01610a59565b93505060c0610b738b828c01610a59565b92505060e0610b848b828c01610a59565b9150509295985092959890939650565b600060208284031215610baa57610ba96108e8565b5b6000610bb884828501610a59565b91505092915050565b610bca81610a38565b82525050565b600081519050919050565b600082825260208201905092915050565b60005b83811015610c0a578082015181840152602081019050610bef565b83811115610c19576000848401525b50505050565b6000610c2a82610bd0565b610c348185610bdb565b9350610c44818560208601610bec565b610c4d816108fc565b840191505092915050565b7f4e487b7100000000000000000000000000000000000000000000000000000000600052602160045260246000fd5b60038110610c9857610c97610c58565b5b50565b6000819050610ca982610c87565b919050565b6000610cb982610c9b565b9050919050565b610cc981610cae565b82525050565b60028110610ce057610cdf610c58565b5b50565b6000819050610cf182610ccf565b919050565b6000610d0182610ce3565b9050919050565b610d1181610cf6565b82525050565b600061014082019050610d2d600083018d610bc1565b8181036020830152610d3f818c610c1f565b90508181036040830152610d53818b610c1f565b90508181036060830152610d67818a610c1f565b90508181036080830152610d7b8189610c1f565b9050610d8a60a0830188610bc1565b610d9760c0830187610bc1565b610da460e0830186610bc1565b610db2610100830185610cc0565b610dc0610120830184610d08565b9b9a5050505050505050505050565b6000602082019050610de46000830184610bc1565b92915050565b7f61756374696f6e2073746172742074696d652073686f756c642062652062656660008201527f6f72652061756374696f6e20656e642074696d65000000000000000000000000602082015250565b6000610e46603483610bdb565b9150610e5182610dea565b604082019050919050565b60006020820190508181036000830152610e7581610e39565b9050919050565b7f4e487b7100000000000000000000000000000000000000000000000000000000600052601160045260246000fd5b6000610eb682610a38565b9150610ec183610a38565b9250827fffffffffffffffffffffffffffffffffffffffffffffffffffffffffffffffff03821115610ef657610ef5610e7c565b5b828201905092915050565b7f4e487b7100000000000000000000000000000000000000000000000000000000600052602260045260246000fd5b60006002820490506001821680610f4857607f821691505b602082108103610f5b57610f5a610f01565b5b5091905056fea2646970667358221220f91babb8fe429e251bd8647934da82c8a107d97b5336074805517d14c70d1afe64736f6c634300080d0033",
  "immutableReferences": {},
  "source": "//SPDX-License-Identifier: MIT\n\npragma solidity ^0.8.4;\n\n//\n\ncontract EcommerceStore {\n\n     //\n     enum ProductStatus {\n            Available,\n            SoldOut,\n            Unsold\n     }\n\n     //\n     enum ProductCondition {\n               New,\n               Used\n     }\n\n     //\n     uint public productIndex;\n\n     //mapstore\n     mapping (uint => address) productIdInStore;\n     \n     //id\n     mapping(address => mapping(uint => Product)) stores;\n\n     //\n     struct Product {\n\n          //\n\n          uint id;\n          string name;\n          string category;\n          string imageLink;\n          string descLink;\n\n          //\n \n          uint auctionStartTime;\n          uint auctionEndTime;\n          uint startPrice;\n\n          address highestBidder;\n          uint highestBid;\n          uint secondHighestBid;\n          uint totalBids;\n\n          //\n\n          ProductStatus status;\n          ProductCondition condition;\n\n     }\n\n     //,\n     constructor(){\n          productIndex = 0;\n     }\n\n     //\n\n     function addProductToStore(string memory _name, string memory _category, string memory _imageLink, string memory _descLink,\n     uint _auctionStartTime, uint _auctionEndTime, uint _startPrice,\n     uint _productCondition) public {\n\n          require(_auctionStartTime < _auctionEndTime, \"auction start time should be before auction end time\");\n          productIndex +=1;\n\n          //\n          Product memory product = Product(productIndex, _name, _category, _imageLink, _descLink,\n          _auctionStartTime, _auctionEndTime, _startPrice, address(0), 0, 0, 0, ProductStatus.Available, ProductCondition(_productCondition));\n\n          //,msg.senderproductIndex\n          stores[msg.sender][productIndex] = product;\n          //\n          productIdInStore[productIndex] = msg.sender;\n     } \n\n     //\n\n     function getProduct(uint _productId) public view returns(uint,string memory,string memory,string memory,string memory,uint,uint,uint,ProductStatus,ProductCondition){\n          //store\n          Product memory product = stores[productIdInStore[_productId]][_productId];\n          //\n          return(product.id,product.name,product.category,product.imageLink,product.descLink,\n          product.auctionStartTime,product.auctionEndTime,product.startPrice,\n          product.status,product.condition);\n     }\n}",
  "sourcePath": "/Users/qinjianquan/decentralized-ebay/truffle-test-and-deploy-contract/contracts/EcommerceStore.sol",
  "compiler": {
    "name": "solc",
    "version": "0.8.13+commit.abaa5c0e.Emscripten.clang"
  },
  "schemaVersion": "3.4.7",
  "updatedAt": "2022-05-21T10:35:50.369Z",
  "networkType": "ethereum",
  "devdoc": {
    "kind": "dev",
    "methods": {},
    "version": 1
  },
  "userdoc": {
    "kind": "user",
    "methods": {},
    "version": 1
  }
}